{
  "_format": "hh-sol-artifact-1",
  "contractName": "Muta",
  "sourceName": "contracts/Muta.sol",
  "abi": [
    {
      "anonymous": false,
      "inputs": [
        {
          "indexed": false,
          "internalType": "bytes32",
          "name": "videocontentId",
          "type": "bytes32"
        },
        {
          "indexed": false,
          "internalType": "uint256",
          "name": "maxWatchCapacity",
          "type": "uint256"
        },
        {
          "indexed": false,
          "internalType": "address",
          "name": "creatorAddress",
          "type": "address"
        },
        {
          "indexed": false,
          "internalType": "string",
          "name": "videocontentDataCID",
          "type": "string"
        }
      ],
      "name": "NewVideoCreated",
      "type": "event"
    },
    {
      "anonymous": false,
      "inputs": [
        {
          "indexed": false,
          "internalType": "bytes32",
          "name": "videoID",
          "type": "bytes32"
        },
        {
          "indexed": false,
          "internalType": "address",
          "name": "attendeeAddress",
          "type": "address"
        }
      ],
      "name": "NewWatchParty",
      "type": "event"
    },
    {
      "inputs": [
        {
          "internalType": "bytes32",
          "name": "eventId",
          "type": "bytes32"
        }
      ],
      "name": "JoinWatchParty",
      "outputs": [],
      "stateMutability": "nonpayable",
      "type": "function"
    },
    {
      "inputs": [
        {
          "internalType": "string",
          "name": "videocontentDataCID",
          "type": "string"
        },
        {
          "internalType": "uint256",
          "name": "maxWatchCapacity",
          "type": "uint256"
        }
      ],
      "name": "createVideoNewContent",
      "outputs": [],
      "stateMutability": "nonpayable",
      "type": "function"
    },
    {
      "inputs": [
        {
          "internalType": "bytes32",
          "name": "",
          "type": "bytes32"
        }
      ],
      "name": "identityToVideoContent",
      "outputs": [
        {
          "internalType": "bytes32",
          "name": "videocontentId",
          "type": "bytes32"
        },
        {
          "internalType": "string",
          "name": "videocontentCID",
          "type": "string"
        },
        {
          "internalType": "address",
          "name": "videoOwner",
          "type": "address"
        },
        {
          "internalType": "uint256",
          "name": "maxWatchCapacity",
          "type": "uint256"
        }
      ],
      "stateMutability": "view",
      "type": "function"
    }
  ],
  "bytecode": "0x608060405234801561001057600080fd5b50610caa806100206000396000f3fe608060405234801561001057600080fd5b50600436106100415760003560e01c80634194ba17146100465780636de5e09514610079578063c08a865714610095575b600080fd5b610060600480360381019061005b919061067c565b6100b1565b60405161007094939291906107ab565b60405180910390f35b610093600480360381019061008e9190610888565b610189565b005b6100af60048036038101906100aa919061067c565b61032f565b005b60006020528060005260406000206000915090508060000154908060010180546100da90610917565b80601f016020809104026020016040519081016040528092919081815260200182805461010690610917565b80156101535780601f1061012857610100808354040283529160200191610153565b820191906000526020600020905b81548152906001019060200180831161013657829003601f168201915b5050505050908060020160009054906101000a900473ffffffffffffffffffffffffffffffffffffffff16908060030154905084565b600033308585856040516020016101a49594939291906109f1565b60405160208183030381529060405280519060200120905060606040518060a0016040528083815260200186868080601f016020809104026020016040519081016040528093929190818152602001838380828437600081840152601f19601f8201169050808301925050505050505081526020013373ffffffffffffffffffffffffffffffffffffffff1681526020018481526020018281525060008084815260200190815260200160002060008201518160000155602082015181600101908051906020019061027792919061050f565b5060408201518160020160006101000a81548173ffffffffffffffffffffffffffffffffffffffff021916908373ffffffffffffffffffffffffffffffffffffffff1602179055506060820151816003015560808201518160040190805190602001906102e5929190610595565b509050507fbc7008183e78771f84c74038a561f0ac3faf6c9894c281a1cd95a4cd850058f28284338888604051610320959493929190610a6a565b60405180910390a15050505050565b600080600083815260200190815260200160002090508060030154816004018054905010610392576040517f08c379a000000000000000000000000000000000000000000000000000000000815260040161038990610b2a565b60405180910390fd5b60005b81600401805490508160ff16101561046c573373ffffffffffffffffffffffffffffffffffffffff16826004018260ff16815481106103d7576103d6610b4a565b5b9060005260206000200160009054906101000a900473ffffffffffffffffffffffffffffffffffffffff1673ffffffffffffffffffffffffffffffffffffffff161415610459576040517f08c379a000000000000000000000000000000000000000000000000000000000815260040161045090610bc5565b60405180910390fd5b808061046490610c21565b915050610395565b5080600401339080600181540180825580915050600190039060005260206000200160009091909190916101000a81548173ffffffffffffffffffffffffffffffffffffffff021916908373ffffffffffffffffffffffffffffffffffffffff1602179055507fd3358eb7cfd98caaa45f5165c1cc82174e336813d3a8243412f54c2c282f9ece8233604051610503929190610c4b565b60405180910390a15050565b82805461051b90610917565b90600052602060002090601f01602090048101928261053d5760008555610584565b82601f1061055657805160ff1916838001178555610584565b82800160010185558215610584579182015b82811115610583578251825591602001919060010190610568565b5b509050610591919061061f565b5090565b82805482825590600052602060002090810192821561060e579160200282015b8281111561060d5782518260006101000a81548173ffffffffffffffffffffffffffffffffffffffff021916908373ffffffffffffffffffffffffffffffffffffffff160217905550916020019190600101906105b5565b5b50905061061b919061061f565b5090565b5b80821115610638576000816000905550600101610620565b5090565b600080fd5b600080fd5b6000819050919050565b61065981610646565b811461066457600080fd5b50565b60008135905061067681610650565b92915050565b6000602082840312156106925761069161063c565b5b60006106a084828501610667565b91505092915050565b6106b281610646565b82525050565b600081519050919050565b600082825260208201905092915050565b60005b838110156106f25780820151818401526020810190506106d7565b83811115610701576000848401525b50505050565b6000601f19601f8301169050919050565b6000610723826106b8565b61072d81856106c3565b935061073d8185602086016106d4565b61074681610707565b840191505092915050565b600073ffffffffffffffffffffffffffffffffffffffff82169050919050565b600061077c82610751565b9050919050565b61078c81610771565b82525050565b6000819050919050565b6107a581610792565b82525050565b60006080820190506107c060008301876106a9565b81810360208301526107d28186610718565b90506107e16040830185610783565b6107ee606083018461079c565b95945050505050565b600080fd5b600080fd5b600080fd5b60008083601f84011261081c5761081b6107f7565b5b8235905067ffffffffffffffff811115610839576108386107fc565b5b60208301915083600182028301111561085557610854610801565b5b9250929050565b61086581610792565b811461087057600080fd5b50565b6000813590506108828161085c565b92915050565b6000806000604084860312156108a1576108a061063c565b5b600084013567ffffffffffffffff8111156108bf576108be610641565b5b6108cb86828701610806565b935093505060206108de86828701610873565b9150509250925092565b7f4e487b7100000000000000000000000000000000000000000000000000000000600052602260045260246000fd5b6000600282049050600182168061092f57607f821691505b60208210811415610943576109426108e8565b5b50919050565b60008160601b9050919050565b600061096182610949565b9050919050565b600061097382610956565b9050919050565b61098b61098682610771565b610968565b82525050565b600081905092915050565b82818337600083830152505050565b60006109b78385610991565b93506109c483858461099c565b82840190509392505050565b6000819050919050565b6109eb6109e682610792565b6109d0565b82525050565b60006109fd828861097a565b601482019150610a0d828761097a565b601482019150610a1e8285876109ab565b9150610a2a82846109da565b6020820191508190509695505050505050565b6000610a4983856106c3565b9350610a5683858461099c565b610a5f83610707565b840190509392505050565b6000608082019050610a7f60008301886106a9565b610a8c602083018761079c565b610a996040830186610783565b8181036060830152610aac818486610a3d565b90509695505050505050565b7f4d617820205761746368204361706163697479205265616368656420416c726560008201527f6164790000000000000000000000000000000000000000000000000000000000602082015250565b6000610b146023836106c3565b9150610b1f82610ab8565b604082019050919050565b60006020820190508181036000830152610b4381610b07565b9050919050565b7f4e487b7100000000000000000000000000000000000000000000000000000000600052603260045260246000fd5b7f416c7265616479204a6f696e6564205761746368205061727479000000000000600082015250565b6000610baf601a836106c3565b9150610bba82610b79565b602082019050919050565b60006020820190508181036000830152610bde81610ba2565b9050919050565b7f4e487b7100000000000000000000000000000000000000000000000000000000600052601160045260246000fd5b600060ff82169050919050565b6000610c2c82610c14565b915060ff821415610c4057610c3f610be5565b5b600182019050919050565b6000604082019050610c6060008301856106a9565b610c6d6020830184610783565b939250505056fea264697066735822122009ad389d06aa98c54afd5c4d79c0b55d51ac350e608b0aaa1f33fef3ce20c1eb64736f6c63430008090033",
  "linkReferences": {},
  "deployedLinkReferences": {}
}