{
  "_format": "hh-sol-artifact-1",
  "contractName": "Muta",
  "sourceName": "contracts/Muta.sol",
  "abi": [
    {
      "anonymous": false,
      "inputs": [
        {
          "indexed": false,
          "internalType": "bytes32",
          "name": "videocontentId",
          "type": "bytes32"
        },
        {
          "indexed": false,
          "internalType": "address",
          "name": "creatorAddress",
          "type": "address"
        },
        {
          "indexed": false,
          "internalType": "uint256",
          "name": "videoTimestamp",
          "type": "uint256"
        },
        {
          "indexed": false,
          "internalType": "string",
          "name": "videocontentDataCID",
          "type": "string"
        }
      ],
      "name": "NewVideoCreated",
      "type": "event"
    },
    {
      "anonymous": false,
      "inputs": [
        {
          "indexed": false,
          "internalType": "bytes32",
          "name": "videoID",
          "type": "bytes32"
        },
        {
          "indexed": false,
          "internalType": "address",
          "name": "attendeeAddress",
          "type": "address"
        }
      ],
      "name": "NewWatchParty",
      "type": "event"
    },
    {
      "inputs": [
        {
          "internalType": "bytes32",
          "name": "eventId",
          "type": "bytes32"
        }
      ],
      "name": "JoinWatchParty",
      "outputs": [],
      "stateMutability": "nonpayable",
      "type": "function"
    },
    {
      "inputs": [
        {
          "internalType": "uint256",
          "name": "videoTimestamp",
          "type": "uint256"
        },
        {
          "internalType": "string",
          "name": "videocontentDataCID",
          "type": "string"
        }
      ],
      "name": "createVideoNewContent",
      "outputs": [],
      "stateMutability": "nonpayable",
      "type": "function"
    },
    {
      "inputs": [
        {
          "internalType": "bytes32",
          "name": "",
          "type": "bytes32"
        }
      ],
      "name": "identityToVideoContent",
      "outputs": [
        {
          "internalType": "bytes32",
          "name": "videocontentId",
          "type": "bytes32"
        },
        {
          "internalType": "string",
          "name": "videocontentCID",
          "type": "string"
        },
        {
          "internalType": "address",
          "name": "videoOwner",
          "type": "address"
        },
        {
          "internalType": "uint256",
          "name": "videoTimestamp",
          "type": "uint256"
        }
      ],
      "stateMutability": "view",
      "type": "function"
    }
  ],
  "bytecode": "0x608060405234801561001057600080fd5b50610c4c806100206000396000f3fe608060405234801561001057600080fd5b50600436106100415760003560e01c80634194ba1714610046578063c08a865714610079578063f4de4b8b14610095575b600080fd5b610060600480360381019061005b9190610683565b6100b1565b60405161007094939291906107b2565b60405180910390f35b610093600480360381019061008e9190610683565b610189565b005b6100af60048036038101906100aa919061088f565b61031c565b005b60006020528060005260406000206000915090508060000154908060010180546100da9061091e565b80601f01602080910402602001604051908101604052809291908181526020018280546101069061091e565b80156101535780601f1061012857610100808354040283529160200191610153565b820191906000526020600020905b81548152906001019060200180831161013657829003601f168201915b5050505050908060020160009054906101000a900473ffffffffffffffffffffffffffffffffffffffff16908060030154905084565b6000806000838152602001908152602001600020905060005b81600401805490508160ff161015610279573373ffffffffffffffffffffffffffffffffffffffff16826004018260ff16815481106101e4576101e3610950565b5b9060005260206000200160009054906101000a900473ffffffffffffffffffffffffffffffffffffffff1673ffffffffffffffffffffffffffffffffffffffff161415610266576040517f08c379a000000000000000000000000000000000000000000000000000000000815260040161025d906109cb565b60405180910390fd5b808061027190610a27565b9150506101a2565b5080600401339080600181540180825580915050600190039060005260206000200160009091909190916101000a81548173ffffffffffffffffffffffffffffffffffffffff021916908373ffffffffffffffffffffffffffffffffffffffff1602179055507fd3358eb7cfd98caaa45f5165c1cc82174e336813d3a8243412f54c2c282f9ece8233604051610310929190610a51565b60405180910390a15050565b600033308560405160200161033393929190610ae3565b604051602081830303815290604052805190602001209050600080600083815260200190815260200160002060030154146103a3576040517f08c379a000000000000000000000000000000000000000000000000000000000815260040161039a90610b6c565b60405180910390fd5b60606040518060a0016040528083815260200185858080601f016020809104026020016040519081016040528093929190818152602001838380828437600081840152601f19601f8201169050808301925050505050505081526020013373ffffffffffffffffffffffffffffffffffffffff1681526020018681526020018281525060008084815260200190815260200160002060008201518160000155602082015181600101908051906020019061045e929190610516565b5060408201518160020160006101000a81548173ffffffffffffffffffffffffffffffffffffffff021916908373ffffffffffffffffffffffffffffffffffffffff1602179055506060820151816003015560808201518160040190805190602001906104cc92919061059c565b509050507fcc3cd3d66e646c25fc5362ce868e26b3ffc681e05309bad0f246b6af173192d78233878787604051610507959493929190610bc8565b60405180910390a15050505050565b8280546105229061091e565b90600052602060002090601f016020900481019282610544576000855561058b565b82601f1061055d57805160ff191683800117855561058b565b8280016001018555821561058b579182015b8281111561058a57825182559160200191906001019061056f565b5b5090506105989190610626565b5090565b828054828255906000526020600020908101928215610615579160200282015b828111156106145782518260006101000a81548173ffffffffffffffffffffffffffffffffffffffff021916908373ffffffffffffffffffffffffffffffffffffffff160217905550916020019190600101906105bc565b5b5090506106229190610626565b5090565b5b8082111561063f576000816000905550600101610627565b5090565b600080fd5b600080fd5b6000819050919050565b6106608161064d565b811461066b57600080fd5b50565b60008135905061067d81610657565b92915050565b60006020828403121561069957610698610643565b5b60006106a78482850161066e565b91505092915050565b6106b98161064d565b82525050565b600081519050919050565b600082825260208201905092915050565b60005b838110156106f95780820151818401526020810190506106de565b83811115610708576000848401525b50505050565b6000601f19601f8301169050919050565b600061072a826106bf565b61073481856106ca565b93506107448185602086016106db565b61074d8161070e565b840191505092915050565b600073ffffffffffffffffffffffffffffffffffffffff82169050919050565b600061078382610758565b9050919050565b61079381610778565b82525050565b6000819050919050565b6107ac81610799565b82525050565b60006080820190506107c760008301876106b0565b81810360208301526107d9818661071f565b90506107e8604083018561078a565b6107f560608301846107a3565b95945050505050565b61080781610799565b811461081257600080fd5b50565b600081359050610824816107fe565b92915050565b600080fd5b600080fd5b600080fd5b60008083601f84011261084f5761084e61082a565b5b8235905067ffffffffffffffff81111561086c5761086b61082f565b5b60208301915083600182028301111561088857610887610834565b5b9250929050565b6000806000604084860312156108a8576108a7610643565b5b60006108b686828701610815565b935050602084013567ffffffffffffffff8111156108d7576108d6610648565b5b6108e386828701610839565b92509250509250925092565b7f4e487b7100000000000000000000000000000000000000000000000000000000600052602260045260246000fd5b6000600282049050600182168061093657607f821691505b6020821081141561094a576109496108ef565b5b50919050565b7f4e487b7100000000000000000000000000000000000000000000000000000000600052603260045260246000fd5b7f416c7265616479204a6f696e6564205761746368205061727479000000000000600082015250565b60006109b5601a836106ca565b91506109c08261097f565b602082019050919050565b600060208201905081810360008301526109e4816109a8565b9050919050565b7f4e487b7100000000000000000000000000000000000000000000000000000000600052601160045260246000fd5b600060ff82169050919050565b6000610a3282610a1a565b915060ff821415610a4657610a456109eb565b5b600182019050919050565b6000604082019050610a6660008301856106b0565b610a73602083018461078a565b9392505050565b60008160601b9050919050565b6000610a9282610a7a565b9050919050565b6000610aa482610a87565b9050919050565b610abc610ab782610778565b610a99565b82525050565b6000819050919050565b610add610ad882610799565b610ac2565b82525050565b6000610aef8286610aab565b601482019150610aff8285610aab565b601482019150610b0f8284610acc565b602082019150819050949350505050565b7f414c5245414459204a4f494e454420564944454f205741544348205041525459600082015250565b6000610b566020836106ca565b9150610b6182610b20565b602082019050919050565b60006020820190508181036000830152610b8581610b49565b9050919050565b82818337600083830152505050565b6000610ba783856106ca565b9350610bb4838584610b8c565b610bbd8361070e565b840190509392505050565b6000608082019050610bdd60008301886106b0565b610bea602083018761078a565b610bf760408301866107a3565b8181036060830152610c0a818486610b9b565b9050969550505050505056fea2646970667358221220d6c56377522efeb79b908b28b40f51a9c50ff3ca6e9fdf6a22a2013f1072449864736f6c63430008090033",
  "linkReferences": {},
  "deployedLinkReferences": {}
}